:1000000000100020190E0000150E0000150E000053
:1000100000000000000000000000000000000000E0
:10002000000000000000000000000000150E0000AD
:100030000000000000000000150E0000150E00007A
:10004000150E0000150E0000150E00000000000047
:10005000150E00000000000000000000000000007D
:1000600000000000150E000000000000000000006D
:1000700000000000150E000000000000210A000032
:100080008104000000000000150E000000000000C8
:10009000150E00000000000000000000000000003D
:1000A000A1040000000000000000000000000000AB
:1000B000000000000000000000000000150E00001D
:1000C000002243088B4274D303098B425FD3030A97
:1000D0008B4244D3030B8B4228D3030C8B420DD3AA
:1000E000FF22090212BA030C8B4202D31212090238
:1000F00065D0030B8B4219D300E0090AC30B8B4276
:1001000001D3CB03C01A5241830B8B4201D38B0323
:10011000C01A5241430B8B4201D34B03C01A5241C8
:10012000030B8B4201D30B03C01A5241C30A8B420B
:1001300001D3CB02C01A5241830A8B4201D38B02F6
:10014000C01A5241430A8B4201D34B02C01A52419A
:10015000030A8B4201D30B02C01A5241CDD2C3090C
:100160008B4201D3CB01C01A524183098B4201D388
:100170008B01C01A524143098B4201D34B01C01A73
:10018000524103098B4201D30B01C01A5241C308EB
:100190008B4201D3CB00C01A524183088B4201D35A
:1001A0008B00C01A524143088B4201D34B00C01A46
:1001B0005241411A00D20146524110467047FFE7B2
:1001C00001B5002000F0F0F802BDC0460029F7D0CC
:1001D00076E7704703460B437FD4002243088B42E7
:1001E00074D303098B425FD3030A8B4244D3030BBE
:1001F0008B4228D3030C8B420DD3FF22090212BA83
:10020000030C8B4202D31212090265D0030B8B42FE
:1002100019D300E0090AC30B8B4201D3CB03C01AE8
:100220005241830B8B4201D38B03C01A5241430BC3
:100230008B4201D34B03C01A5241030B8B4201D3B3
:100240000B03C01A5241C30A8B4201D3CB02C01A1E
:100250005241830A8B4201D38B02C01A5241430A96
:100260008B4201D34B02C01A5241030A8B4201D385
:100270000B02C01A5241CDD2C3098B4201D3CB012C
:10028000C01A524183098B4201D38B01C01A5241DB
:1002900043098B4201D34B01C01A524103098B42DF
:1002A00001D30B01C01A5241C3088B4201D3CB00CA
:1002B000C01A524183088B4201D38B00C01A5241AD
:1002C00043088B4201D34B00C01A5241411A00D25D
:1002D00001465241104670475DE0CA0F00D04942C6
:1002E000031000D34042534000229C4603098B4236
:1002F0002DD3030A8B4212D3FC22890112BA030ABE
:100300008B420CD3890192118B4208D3890192113F
:100310008B4204D389013AD0921100E08909C309C4
:100320008B4201D3CB01C01A524183098B4201D3C6
:100330008B01C01A524143098B4201D34B01C01AB1
:10034000524103098B4201D30B01C01A5241C30829
:100350008B4201D3CB00C01A524183088B4201D398
:100360008B00C01A5241D9D243088B4201D34B00B3
:10037000C01A5241411A00D20146634652415B10F5
:10038000104601D34042002B00D5494270476346D6
:100390005B1000D3404201B5002000F005F802BD1B
:1003A0000029F8D016E770477047C04600000000EB
:1003B000F8B5012700F014F8064D074E074C3368D6
:1003C0001F4204D03368BB433360A7232B5100F096
:1003D0004DF8F4E70000084040000020081100003C
:1003E00000221B4B10B51A6000F0BEF9194B1A4AD7
:1003F0001A485A60596859609A609A689C219A60B4
:100400000322490143581340032BFBD1114B144ADB
:10041000144C5A605968200059609A609A689A6032
:100420008022596892041143596099680A439A607E
:1004300000F0D0FA200000F0ADF9200000F0D4FB6D
:100440008022094B52021A60802252041A6010BDA9
:10045000400000200080424081000D0000000A4062
:1004600083000C000000002000E100E072B6034BA6
:100470001B68002B00D130BF62B6704740000020DF
:100480000121044A044BD150044A13680B43136002
:100490007047C0460040084048100000400000205F
:1004A00010B5024800F0D0FB10BDC046000000208F
:1004B000F8B50F4A0F4B104F104E114D114C12480A
:1004C0001249FA50F250EA50E250C250CA50104954
:1004D000CA50104A043BFA50F250EA50E250C2505F
:1004E0000A48C2501020CA5000F0F4FCF8BDC046C3
:1004F000030000B10408000000000A40004008406A
:1005000000000F4000804640008010400040004046
:100510000000084001000026134B144A5A60596835
:1005200059609A609A689A608022596892041143CF
:10053000596099680A4384219A600D4A1A639A6245
:1005400019651A611A6D0B490A4080211A651A6DE6
:100550000A431A65084A9A6282229A64013A1A6426
:10056000064ADA647047C0460080424083000C00AF
:1005700083000400FFFFFCFF8200040081000400F0
:10058000024A034B0349D1507047C04600F00A406D
:1005900028130000010000620021074A074BD150D8
:1005A000074A033113688B431360064A0C31136802
:1005B0008B4313607047C04600F00A4008130000E8
:1005C00000010B4004010B4010B50849084800F039
:1005D000DFFC0849064800F0E9FC0122044806490E
:1005E000435813434350054BC25010BDF011000057
:1005F00000400840DC110000281000000811000035
:1006000010B51C491C4800F06BFC9023C0221A480E
:100610005B01C158D2000A43C2508022C158520027
:100620000A43C2504823154A040081584B409B0599
:100630009B0D4B40202183507F23114A805841401D
:100640000B4080214340A350A3580B43A3500D4BB4
:100650007939E2588A43E250E2580B490A400821AE
:10066000E2500A4BE2580A43E250E25804390A4386
:10067000E25010BDD811000000000F4050120000E1
:10068000541200006C120000FFF8FFFF5812000027
:1006900010B50B490B4800F071FC0B49094800F0FC
:1006A0004DFC12223F23074C08496058424013403A
:1006B000434063500121064AA3580B43A35010BD89
:1006C000C811000000804640CC1100000C11000051
:1006D0000411000010B50B490B4800F0DBFB8C2324
:1006E00001218022084C5B01E150803BE05852021E
:1006F00002438F20E250054AA050E2580A43E250DC
:1007000010BDC046C01100000040004014110000A0
:100710008822044B044952019950BE21034A09061C
:100720009950704700000840340002C904110000CD
:1007300010B50A490A4800F0A3FC0A49084800F02D
:100740007BFC1522D021064800F0A4FC8822012160
:100750000348520183580B43835010BDBC11000065
:1007600000801040B011000010B5FFF7A1FEFFF7A8
:10077000D3FEFFF705FFFFF70FFFFFF725FFFFF79A
:100780003FFFFFF785FFFFF7D3FFFFF7A3FFFFF75B
:10079000BFFF10BD0022194B10B5194C1860194B42
:1007A00000211A702000423200F0CCFC164B0F21C1
:1007B0002381E381A38263832384E384A385638607
:1007C000124B134AA3638C235B01D1508821012073
:1007D000490153580343535080210E484900135890
:1007E0000B4313500C4813580B42FCD00B4BD05802
:1007F0000143D1500A4A0B4BD35810BD440100208D
:100800004C01002049010020FF0F00000008FF07F5
:1008100000400040041100003010000048100000AB
:100820008052004000505500F0B5D6464F4646462F
:100830000400C0B5002811D01E4B1F4E99461F4B17
:100840001F4F9A46022C0FD8012C0CD1306800F0B3
:10085000E5F9202827D93B78012B27D0E0BCBA4600
:10086000B146A846F0BDFEE7306800F0D7F90500B4
:10087000306800F0D3F98046306800F0CFF9202DC1
:1008800009D93D78033C012D02D1534600221A704C
:10089000002CD7D1E2E74A466B009854D318424661
:1008A0003D705A70EEE738700128D7D10022034B13
:1008B0001A70D3E74C0100204401002048010020B9
:1008C00049010020F8B5CE46474680B5364D374C35
:1008D0002B78012B10D0364E5B00E3183068597826
:1008E00000F0A8F92B7830685B00E15C00F0A2F919
:1008F000C0BCB946B046F8BD607800281CD02D4A6F
:1009000047B29046117880224E1CF6B28C460A41BE
:10091000B146072E44D91600064002420FD1002FDF
:1009200038DB01220126022194463F320242EAD0FE
:1009300042461170FF2E31D100226280CBE70022A7
:100940004046027060461C4A0127165C8C221B48F8
:10095000520186508826760182593A438251184ABC
:1009600080261700825876003243C251154A9446B9
:10097000624682583242FBD0134A090187583E43EF
:1009800086501248124A825862801204120E114395
:10099000E170A0E7002201219446C9E73100D1E7C8
:1009A0000E004946C2E7C046490100204C01002024
:1009B0004401002048010020F411000000400040E4
:1009C0000411000030100000481000008052004068
:1009D000005055000B4B0C4A1860002313700B4A53
:1009E0000B4913600B4A136080230B4ADB008858C5
:1009F00003438B508022C021084B120249005A50F9
:100A00001A6070479401002098010020A001002086
:100A1000008010409C0100202810000000E100E050
:100A20008122194B5201F0B59958CE464746FF2214
:100A300080B50A400B2A03D0C0BCB946B046F0BD11
:100A4000124A00279446126804209046104A114C1E
:100A50001668114A91464246511C3F22114003E05C
:100A60004A469A588E4208D11A591042F8D0002F9F
:100A7000E2D0634642461A60DEE74546074F8846A5
:100A80007A550127E7E7C04600801040A00100200A
:100A90009C0100200811000024110000A401002086
:100AA000F8B54746CE4680B5071E03D1C0BCB9464F
:100AB000B046F8BD1E4D7C1E286800F0AFF81D4EF4
:100AC0003070012FF2D01C4B1C4F98461C4B99469E
:100AD00007E0002B13D0082B01D11A4B1870002C03
:100AE000E4D0286800F09AF83378013C182B0BD03A
:100AF000EFD9202B0BD0382BF1D13870EFE78923B9
:100B0000114A5B01D050EAE743461870E7E74B46CD
:100B10000E4A1870800704D580210D4B0902D15070
:100B2000DDE7952380215B010902D150D7E7C0465C
:100B30009401002098010020900100208E010020E7
:100B40008F010020910100200080104000000A4029
:100B50009012000010B51B4B197820292FD012D805
:100B6000082929D0182924D0002917D1164A174856
:100B70001368006898420CD03F201549C95C0133C6
:100B80000340136005E028290AD0382906D1114B0B
:100B90001978114B186800F04DF810BDFF21F8E7E7
:100BA0000A4A094B11681B68C91A4B1E99416031EA
:100BB000EFE70A4B1978ECE7094B1978E9E7094B9D
:100BC0001978E6E7980100209C010020A001002090
:100BD000A40100208E01002094010020900100203B
:100BE000910100208F01002000230371084A03684F
:100BF000084899580140012099509958014399504B
:100C0000C02205491204585802435A507047C04642
:100C100058120000FFFBFFFF281000004269016925
:100C2000030000208A4203D2501C99685861885CF6
:100C30007047C046036AC26910B5934203D2826905
:100C40005C1C0462D15410BD812310B504000068FF
:100C50005B01C258FF231340133B052B0AD8644A9B
:100C60009B00D3589F466349634C435823404350ED
:100C7000624BC25010BD2379032B77D0022B00D1D9
:100C8000B1E05C4A5E4983580B40835000232371D6
:100C9000F0E72379012B7FD02369E2689A42E9D9F2
:100CA0000F2294460BE0932252018158A268581CEF
:100CB0002061D1542369E2689342DBD22068614607
:100CC000504A82581142EED1D4E700232362636276
:100CD0003833E35C002B3CD1E36A002B3CD09847CF
:100CE0002068022323718023424A1B0381580B434F
:100CF0008350BFE7236A626A9C469342BAD9F021C7
:100D0000414B0901C3580B42B4D0531CA169636223
:100D10008A5C9C45A7D039494250F0211A003A4BD1
:100D20000901C3580B42F0D1A4E72379032B3AD031
:100D3000022B4FD03822354BC3581B07DB0FA3546F
:100D400090232C4A9B0381580B438350012323712A
:100D500090E7636B002BC2D1E369002BC1D0012265
:100D6000A3692262FE321A702068BAE70121284A7C
:100D700083588B4383503823E35C002B23D0236BB1
:100D8000002B03D020690121984720680121204AC7
:100D900083580B43835074E700232361636103335B
:100DA0002371002379E73533E35C002B07D0236BF5
:100DB000002BBFD02069002198472068BAE7A36ABA
:100DC000002BF7D1B6E7A36A002BDFD02069984744
:100DD0002068DBE7074A084983580B40835000F03E
:100DE00093F82068A6E700F08FF8206849E7C0462E
:100DF000FC11000028100000FFFFF7FF6412000044
:100E0000FFFFD3FF701200003C1200005C120000D4
:100E100058120000FEE7C0461548164B10B5984220
:100E200007D2013B1A1A920801321349920000F0CE
:100E3000B5F91248124B984207D2013B1A1A920890
:100E400001321049920000F0A9F90F480F4B984267
:100E500007D2013B1A1A920801320021920000F0D9
:100E600071F900F077F9FFF7A3FAFFF7D3FF10BD90
:100E70000000002040000020A01200000000002020
:100E800000000020B011000040000020E801002018
:100E90007047C046A9230C4A30B50D7884581B060C
:100EA0002B430A4D63402B40634083508822E0254A
:100EB000520184584B68ED0463402B4063408350DB
:100EC0004A78034BC25030BD08080000030000FF01
:100ED00010110000831E043BC046FCD27047C04680
:100EE0000C2330B5074C0A7805596A4013406B4013
:100EF00003510723043C05594A786A4013406B406C
:100F0000035130BD0410000080210A4A10B58358F7
:100F1000094C0B438350F02180220901120103592F
:100F20000B409342FBD18021024A83588B4383506C
:100F300010BDC0466C12000070120000882230B54F
:100F40004D880B8952012B438D7984582B43094DD1
:100F500063402B4063408350CD798B8809782B43C5
:100F60000B43BA21044A4900845863400B40634054
:100F7000835030BD7F330000041100000A78034B1A
:100F8000C2504A78043BC2507047C046041000006B
:100F90000A78044BC2504A78083BC2508A78024B08
:100FA000C2507047081000000C1100001A4B4A682C
:100FB00030B5C2500B78222B08D8184A9B00D35862
:100FC0009F46174A174C8358234083500A69164B93
:100FD000164DC250164ACB68845863402B4063407C
:100FE0000F4C83500359134A134003510B780A7A6C
:100FF00005591A433F236A4013406B40035130BDEB
:101000008023C025064A9B058458AD0563402B40CC
:1010100063408350DAE7C04608180000141200004D
:1010200004180000FFFFFFCF1018000077770200C0
:10103000301800007F00FFFF882230B501245201E4
:101040008358A34383508D780B8884582B438D8815
:101050002B43094D63402B4063408350CA798B7901
:10106000064C13430A7A055913437E226B40134002
:101070006B40035130BDC0461867020004110000E8
:101080000A78034BC2504A78083BC2507047C046AA
:101090000810000070B5D30004000800110083425E
:1010A00029D988228023C0265201A5585B026B40B3
:1010B000760233406B40A3504A0080015118FEF77E
:1010C000FFFF1C4A8309A1584B401B041B0C4B40DB
:1010D000A3503F23184A1840A158484018404840A0
:1010E0001649A05062583E3B60581A404240134097
:1010F0004340635070BD13018822520183420FD9CF
:101100008023C026A5581B026B40760233406B40FB
:10111000A350C0004908FEF7D3FF01304008D0E7D4
:10112000A358074DC0002B40A350FEF7C9FF013064
:101130004008C6E71011000014110000041100005F
:10114000FF7FFEFF03008218934200D170471970A1
:101150000133F9E770B500260C4C0D4D641BA4104B
:10116000A64209D10026FFF793FE0A4C0A4D641BE4
:10117000A410A64205D170BDB300EB5898470136C4
:10118000EEE7B300EB5898470136F2E7A0120000F3
:10119000A0120000A0120000A0120000002310B551
:1011A0009A4200D110BDCC5CC4540133F8E7000072
:1011B00000001800000000300000000008000000DF
:1011C00001050000000000000800000000002000F1
:1011D00000000710001000000800000002000000DE
:1011E000FF3F0000010000000000000000000000C0
:1011F000020000000102030405060809920C000029
:10120000F40C0000740C0000CA0C00002A0D000051
:10121000760C0000C20F0000CC0F0000C20F0000CF
:10122000CC0F0000CC0F0000CC0F0000CC0F000052
:10123000CC0F0000CC0F0000CC0F0000CC0F000042
:10124000CC0F0000CC0F0000CC0F0000CC0F000032
:10125000CC0F000000100000CC0F000000100000B8
:10126000CC0F0000CC0F0000CC0F0000CC0F000012
:10127000CC0F0000CC0F0000CC0F0000CC0F000002
:10128000CC0F0000CC0F0000CC0F0000CC0F0000F2
:10129000CC0F000000100000CC0F00000010000078
:1012A00000000F4000000000C4000020800000008B
:1012B000000000000000000044000020800000004A
:1012C0000000000000000000A10A0000550B000013
:1012D00029080000C508000000000000010000000F
:04000003000000C039
:00000001FF
